:020000040800F2
:10000000602000206902000871020008910B0008BE
:10001000891500082B0400082128000800000000B2
:100020000000000000000000000000007B0200084B
:100030007D020008000000007F020008E51F0008A4
:10004000830200088302000883020008830200087C
:10005000830200088302000883020008830200086C
:10006000830200088302000883020008830200085C
:10007000830200088302000883020008830200084C
:10008000830200088302000883020008830200083C
:10009000830200088302000883020008830200082C
:1000A000830200088302000883020008830200081C
:1000B000552000086D200008830200088302000814
:1000C00083020008830200088302000883020008FC
:1000D0008302000815250008830200088302000837
:1000E00083020008830200088302000883020008DC
:1000F00083020008830200088302000883020008CC
:10010000830200084D1C00088302000883020008D7
:1001100083020008830200088302000883020008AB
:10012000830200088302000883020008830200089B
:10013000830200088302000883020008830200088B
:10014000830200088302000883020008830200087B
:100150008302000883020008950400088302000857
:10016000830200088302000883020008830200085B
:10017000830200088302000883020008830200084B
:10018000830200088302000800F002F800F05CF827
:100190000AA090E8000C82448344AAF10107DA45E2
:1001A00001D100F051F8AFF2090EBAE80F0013F0D8
:1001B000010F18BFFB1A43F0010318473441000038
:1001C000544100000A444FF0000C10F8013B13F0BA
:1001D000070408BF10F8014B1D1108BF10F8015BA0
:1001E000641E05D010F8016B641E01F8016BF9D193
:1001F00013F0080F1EBF10F8014BAD1C0C1B09D1EA
:100200006D1E58BF01F801CBFAD505E014F8016B5B
:1002100001F8016B6D1EF9D59142D6D370470000ED
:100220000023002400250026103A28BF78C1FBD8FF
:10023000520728BF30C148BF0B6070471FB503F09D
:100240008AFE1FBD10B510BD00F0BCF81146FFF7C7
:10025000F5FF03F04DFA00F0DAF803B4FFF7F2FF10
:1002600003BC00F0DBF8000009488047094800475C
:10027000FEE7FEE7FEE7FEE7FEE7FEE7FEE7FEE756
:10028000FEE7FEE704480549054A064B70470000B3
:10029000ED1F000889010008600C0020602000208C
:1002A000601C0020601C0020032A40F2308010F007
:1002B000030C00F0158011F8013BBCF1020F624401
:1002C00098BF11F801CB00F8013B38BF11F8013B92
:1002D000A2F1040298BF00F801CB38BF00F8013B3F
:1002E00011F0030300F03380083AC0F0088051F8A1
:1002F000043B083A51F804CBA0E80810F5E7121DBA
:100300005CBF51F8043B40F8043BAFF30080D207D8
:1003100024BF11F8013B11F801CB48BF11F8012BA4
:1003200024BF00F8013B00F801CB48BF00F8012BC7
:10033000704770477047704710B500F03BF8006891
:1003400010BD10B5044600F035F8046010BD10B5BE
:10035000203AC0F00B80B1E81850203AA0E81850BD
:10036000B1E81850A0E81850BFF4F5AF5FEA027C7E
:1003700024BFB1E81850A0E8185044BF18C918C0ED
:10038000BDE810405FEA827C24BF51F8043B40F88E
:10039000043B08BF7047D20728BF31F8023B48BF73
:1003A00011F8012B28BF20F8023B48BF00F8012BB1
:1003B0007047000000487047FC0B00200048704761
:1003C000FC0B00207546FFF7F9FFAE4605006946B5
:1003D000534620F00700854618B020B5FFF752FFBE
:1003E000BDE820404FF000064FF000074FF0000836
:1003F0004FF0000B21F00701AC46ACE8C009ACE8B7
:10040000C009ACE8C009ACE8C0098D467047044695
:10041000AFF300802046FFF720FF000001491820BD
:10042000ABBEFEE726000200704700BFFEE70000FB
:1004300070B5044605E01648056805F0450000B1B2
:1004400000E0F8E700BF042001F0F4FB20B1042035
:1004500001F0EAFB032070BD012001F0EBFB20B1AD
:10046000012001F0E1FB0120F5E70948243800688C
:10047000A04201D01020EEE740F2FF5001F0D4FB83
:1004800003482038006808210840C0B2E3E70000B4
:10049000342C014010B50749074800F0EBF840B193
:1004A0004FF02051044800F009F80021024800F004
:1004B0001FF810BD00800028B86402400246094BB6
:1004C0009A4201D2084801E00648103801F0005372
:1004D0001BB1064B0B40C36002E0044B0B40836032
:1004E0007047000010640240006002407D0F7D0FE5
:1004F00021B1026842F00102026003E0026822F0CA
:100500000102026070470000016821F001010160F2
:100510000021016041608160C16001612121416170
:100520004A49884204D13D21484A103A91608CE002
:1005300046491831884205D14FF47461434A103A54
:10054000916082E041493031884205D14FF4741105
:100550003E4A103A916078E03C494831884205D1E2
:100560004FF07461394A103A91606EE0374960315A
:10057000884204D13649354A103AD16065E03349A2
:100580007831884204D13349304A103AD1605CE076
:100590002E499031884204D12F492C4A103AD1601B
:1005A00053E02A49A831884205D14FF03D51274AEE
:1005B000103AD16049E02949884204D13D21274AB7
:1005C000083A116041E025491831884205D14FF4BD
:1005D0007461224A083A116037E02049303188427C
:1005E00005D14FF474111D4A083A11602DE01B49E2
:1005F0004831884205D14FF07461184A083A1160B9
:1006000023E016496031884204D11149134A121F70
:1006100011601AE011497831884204D10D490F4A1E
:10062000121F116011E00D499031884204D10A492E
:100630000A4A121F116008E00849A831884204D113
:100640004FF03D51054A121F116070471060024083
:100650003D000020400F002000003D2010640240BB
:10066000014600200A6802F001020AB1012000E000
:100670000020704770B50246002000240025124E6D
:10068000B24201D2114B01E00F4B103B104E0E4015
:1006900036B11E2606EAD124166806EA040502E0F1
:1006A000566906F0800501F000560EB15C6800E066
:1006B0001C68084E344004EA010616B10DB1012051
:1006C00000E0002070BD00001064024000600240A5
:1006D0003C0F3C0F7D0F7D0F10B501F080034BB137
:1006E00022B1436943F08003436103E0436923F08F
:1006F0008003436180290BD02AB1036801F01E04F6
:100700002343036004E0036801F01E04A343036075
:1007100010BD000010B500220268134B1A40CC68CF
:100720000B6823434C6923438C692343CC692343DF
:100730000C6A23434C6A23438C6A23434C6B234348
:100740008C6B23431A430260426922F00702D1E90D
:100750000B3423431A4342610B6943604B68836047
:100760008B68C36010BD00003F801CF04160704783
:1007700031B50A4900980860094800684FF47A7159
:10078000B0FBF1F4204601F003FC08B100BFFEE726
:1007900000BF024800680028FBD138BD08020020D5
:1007A00014020020F0B50A4600210023002400BFF7
:1007B0003DE0012505FA01F3156805EA03049C42B2
:1007C00034D105684F000326BE40B5430560157956
:1007D0004E00B5400668354305601579012D02D0FD
:1007E0001579022D16D185684F000326BE40B5430A
:1007F000856055794E00B54086683543856045680B
:1008000001268E40B5434560456896798E40B6B264
:1008100035434560C5684F000326BE40B543C560FB
:10082000D5794E00B540C6683543C560491C1029CE
:10083000BFD3F0BD7CB505460C46284601F0E8F86C
:10084000009400208DF8040002208DF8050000209F
:100850008DF8070069462846FFF7A4FF7CBD7CB5EC
:1008600005460C46284601F0D3F8009403208DF885
:10087000050001208DF8040000208DF8060069466F
:100880002846FFF78FFF7CBDF0B5002300244D07FD
:10089000ED0E02FA05F3CE1000F1200555F82650B2
:1008A0004E07F70E0F26BE40B543CF1000F12006CD
:1008B00046F82750CE1000F1200555F8265045EA9D
:1008C0000304CE1000F1200545F82640F0BD024695
:1008D000002013690B400BB1012000E0002070479D
:1008E00041837047018370470EB50020062301AA9B
:1008F00043210090682003F058F89DF805009DF80A
:10090000041040EA012090490988401A00B28F493A
:1009100008809DF807009DF8061040EA01208A49EA
:100920004988401A00B2894948809DF809009DF81D
:10093000081040EA012084498988401A00B283499E
:1009400088800846B0F9000000EE100AB8EEC00A30
:10095000DFED7F0A80EE201A7E4880ED001A0846FF
:10096000B0F9020000EE100AB8EEC00ADFED780A16
:1009700080EE201A774880ED011A0846B0F904008D
:1009800000EE100AB8EEC00ADFED710A80EE201A00
:10099000704880ED021A0020062301AA3B21009036
:1009A000682003F002F89DF805009DF8041040EA65
:1009B000012000B2684908809DF807009DF80610E4
:1009C00040EA012000B2644948809DF809009DF882
:1009D000081040EA012000B25F4988800846B0F95B
:1009E000000000EE100AB8EEC00A5C4880ED000A74
:1009F0000846B0F9020000EE100AB8EEC00A5748E7
:100A000080ED010A0846B0F9040000EE100AB8EEC5
:100A1000C00A524880ED020A4E48D0ED000AB0EEFE
:100A2000600A4F494F4800F094FC4F4880ED000A9F
:100A30004848D0ED010AB0EE600A494949481830EB
:100A400000F087FC484880ED010A4248D0ED020AD8
:100A5000B0EE600A42494348303000F07AFC424828
:100A600080ED020AD0ED000AB0EE600A3F4940482E
:100A700000F06FFC3F4880ED000A3B48D0ED010AD2
:100A8000B0EE600A39493A48183000F062FC394843
:100A900080ED010A3448D0ED020AB0EE600A334915
:100AA0003348303000F055FC324880ED020A2B48C4
:100AB000D0ED000AB0EE600A2F49304800F049FC42
:100AC0002F4880ED000A2548D0ED010AB0EE600AFB
:100AD00029492A48183000F03CFC294880ED010AD9
:100AE0001E48D0ED020AB0EE600A23492348303098
:100AF00000F02FFC224880ED020AD0ED000AB0EE93
:100B0000600A2049204800F024FC204880ED000ABB
:100B10001B48D0ED010AB0EE600A1A491A48183095
:100B200000F017FC194880ED010A1548D0ED020AC3
:100B3000B0EE600A13491448303000F00AFC134844
:100B400080ED020A0EBD00009E0100208C010020F5
:100B500068110342F004002092010020FC040020F0
:100B60001401002018040020380500201003002084
:100B7000A8040020140500202C010020D003002030
:100B800044050020280300208803002020050020C1
:100B900000BFFEE710B504464FF400510F48FFF7C1
:100BA0009FFE02F0D5FE2CB14FF400410B48FFF739
:100BB00097FE04E04FF400410848FFF793FE4FF41E
:100BC00000510648FFF78EFE02F0C2FE4FF40051BE
:100BD0000248FFF785FE02F0BBFE10BD000C02408C
:100BE00010B54FF400410B48FFF77CFE4FF4005165
:100BF0000848FFF777FE02F0ABFE4FF400410548CE
:100C0000FFF76EFE02F0A4FE4FF400510148FFF71B
:100C100067FE10BD000C024010B54FF400410C48B7
:100C2000FFF75EFE4FF400510948FFF759FE02F04E
:100C30008FFE4FF400510648FFF754FE02F088FE85
:100C40004FF400410248FFF74DFE02F081FE10BD57
:100C5000000C024070B5002415E004F1B001C8B2E8
:100C600000F060FA012000F05DFA102000F05AFA5E
:100C7000002504E0002000F097FA681CC5B2802D22
:100C8000F8DB601CC4B2082CE7DB70BD70B506460B
:100C9000002415E004F1B001C8B200F043FA0120CD
:100CA00000F040FA102000F03DFA002504E0304644
:100CB00000F07AFA681CC5B2802DF8DB601CC4B263
:100CC000082CE7DB70BD00002DE9F047044688469C
:100CD00015464FF000090026002720E0E85D203887
:100CE00000F0FF097E2C04DD002408F1010000F073
:100CF000FF084146204600F000FA002609E009EB13
:100D00004901094A02EB4101885D00F04DFA701C6F
:100D1000C6B2062EF3DBA01DC4B2781CC7B2E85DD4
:100D20000028DBD1BDE8F0876A3F00082DE9F041DB
:100D300005460E461746A7F1200000F0FF087E2D5D
:100D400002DD0025701CC6B23146284600F0D5F9F8
:100D5000002409E008EB4801064A02EB4101085D66
:100D600000F022FA601CC4B2062CF3DBA81DC5B249
:100D7000BDE8F0816A3F00082DE9F74F2DED020B29
:100D80002DED048B84B00446B0EE408A93460620D5
:100D900001904FF00009BDEEC80A10EE105ABDEEEA
:100DA000C80AB8EEC00A38EE400ADFED9A0A20EE13
:100DB000200ABDEEC00A10EE108A18EE100A03F0E9
:100DC00059F841EC190B9FED940B53EC102B02F0EA
:100DD000F5FE05D22D2220460B99FFF7A7FF04E070
:100DE0002B2220460B99FFF7A1FF002D00DA6D4260
:100DF000A94642F21070B9FBF0F0C0B2039042F283
:100E00001070B9FBF0F100FB11904FF47A71B0FB58
:100E1000F1F0C0B202900846B9FBF0F100FB11906E
:100E20006421B0FBF1F000F0FF0A6420B9FBF0F19F
:100E300000FB11900A21B0FBF1F60A20B9FBF0F19A
:100E400000FB1197039860B303993031CAB2A11D1A
:100E5000C8B20B99FFF76AFF02993031CAB204F1A8
:100E60000C01C8B20B99FFF761FF0AF13001CAB259
:100E700004F11201C8B20B99FFF758FF06F13001D7
:100E8000CAB204F11801C8B20B99FFF74FFF07F17E
:100E90003001CAB204F11E01C8B20B99FFF746FF38
:100EA00066E0029828B30520019002993031CAB259
:100EB000A11DC8B20B99FFF739FF0AF13001CAB280
:100EC00004F10C01C8B20B99FFF730FF06F13001B5
:100ED000CAB204F11201C8B20B99FFF727FF07F15C
:100EE0003001CAB204F11801C8B20B99FFF71EFF16
:100EF0003EE0BAF1000F1CD0042001900AF130014D
:100F0000CAB2A11DC8B20B99FFF710FF06F130015C
:100F1000CAB204F10C01C8B20B99FFF707FF07F141
:100F20003001CAB204F11201C8B20B99FFF7FEFEFC
:100F30001EE09EB10320019006F13001CAB2A11D4E
:100F4000C8B20B99FFF7F2FE07F13001CAB204F103
:100F50000C01C8B20B99FFF7E9FE09E002200190ED
:100F600007F13001CAB2A11DC8B20B99FFF7DEFE2E
:100F7000B8F1000F01DAC8F10008BBF1050F42D249
:100F8000DFE80BF00304152535003CE04FF47A70E0
:100F900098FBF0F00090019901EB410104EB410155
:100FA000C8B25B46009A0B9900F040F92BE0642030
:100FB00098FBF0F00090019901EB410104EB410135
:100FC000C8B25B46009A0B9900F030F91BE00A208A
:100FD00098FBF0F00090019901EB410104EB410115
:100FE000C8B25B46009A0B9900F020F90BE001991A
:100FF00001EB410104EB4101C8B25B4642460B994B
:1010000000F014F900BF00BF04B0BDEC048B05B0C4
:10101000BDE8F08F00401C4600000000000000000A
:101020002DE9F05F05468B461446002C07DA2D2289
:1010300059462846FFF77AFE604204B204E02B22AC
:1010400059462846FFF772FE42F2107094FBF0F00A
:1010500000F0FF0942F2107094FBF0F100FB114028
:101060004FF47A7190FBF1F000F0FF0A084694FB10
:10107000F0F100FB1140642190FBF1F0C6B2642056
:1010800094FBF0F100FB11400A2190FBF1F0C7B294
:101090000A2094FBF0F100FB114000F0FF0809F179
:1010A0003001CAB2A91DC8B25946FFF73FFE0AF186
:1010B0003001CAB205F10C01C8B25946FFF736FE3D
:1010C00006F13001CAB205F11201C8B25946FFF764
:1010D0002DFE07F13001CAB205F11801C8B2594618
:1010E000FFF724FE08F13001CAB205F11E01C8B2B3
:1010F0005946FFF71BFEBDE8F09F70B504460D464C
:1011000005F1B001C8B200F00DF8102141EA141049
:1011100000F008F804F00F0141F0010000F002F8BF
:1011200070BD000070B50446082569021D48FFF730
:10113000D7FB02F0F9FA29031A48FFF7D1FB02F0B6
:10114000F3FA02F0F1FA02F0EFFA25E004F0800081
:1011500028B14FF480411348FFF7C4FB04E04FF47B
:1011600080411048FFF7BCFB02F0DEFA4FF400416B
:101170000C48FFF7B7FB02F0D7FA02F0D5FA02F0FD
:10118000D3FA4FF400410748FFF7AAFB02F0CCFA6C
:101190006006040E02F0C8FA2800A5F10101CDB2E4
:1011A000D4D170BD0010024070B504460825690214
:1011B0001D48FFF797FB02F0B7FA29031A48FFF71B
:1011C0008FFB02F0B1FA02F0AFFA02F0ADFA25E0BF
:1011D00004F0800028B14FF480411348FFF782FBF0
:1011E00004E04FF480411048FFF77AFB02F09CFACC
:1011F0004FF400410C48FFF775FB02F095FA02F03E
:1012000093FA02F091FA4FF400410748FFF768FBA8
:1012100002F08AFA6006040E02F086FA2800A5F1B0
:101220000101CDB2D4D170BD001002402DE9F05FB4
:1012300004468A46154698462E2251462046FFF718
:1012400075FD4FF47A70B5FBF0F000F0FF0B4FF432
:101250007A70B5FBF0F100FB11506421B0FBF1F0A6
:1012600000F0FF096420B5FBF0F100FB11500A21EA
:10127000B0FBF1F70A20B5FBF0F100FB1156B8F115
:10128000010F09D0B8F1020F0FD0B8F1030F1ED033
:10129000B8F1040F5AD135E006F13001CAB2A11DF0
:1012A000C8B25146FFF742FD50E007F13001CAB223
:1012B000A11DC8B25146FFF739FD06F13001CAB28F
:1012C00004F10C01C8B25146FFF730FD3EE009F1D0
:1012D0003001CAB2A11DC8B25146FFF727FD07F180
:1012E0003001CAB204F10C01C8B25146FFF71EFD2D
:1012F00006F13001CAB204F11201C8B25146FFF73B
:1013000015FD23E00BF13001CAB2A11DC8B2514650
:10131000FFF70CFD09F13001CAB204F10C01C8B2AB
:101320005146FFF703FD07F13001CAB204F1120183
:10133000C8B25146FFF7FAFC06F13001CAB204F117
:101340001801C8B25146FFF7F1FC00BF00BFBDE86D
:10135000F09FF0EE400AC0ED020A91ED030A90ED15
:10136000021A20EE010A91ED041AD0ED011A01EEE5
:10137000210A91ED051AD0ED001A01EE210A91ED36
:10138000011AD0ED041A01EE610A91ED021AD0EDB6
:10139000031A01EE610A80ED050A90ED010A80ED65
:1013A000000A90ED020A80ED010A90ED040A80ED3A
:1013B000030A90ED050A80ED040A90ED050A7047D6
:1013C00010B5FFF791FADFED274A274890ED024A62
:1013D000D0ED013A90ED003A2448D0ED022A90ED8C
:1013E000012AD0ED001A224890ED021AD0ED010A30
:1013F00090ED000A01F04EFF01F0A6FE1D48D0ED71
:101400000F0AB0EE600A01F021FADFED1B0A20EEB0
:10141000200A1A4880ED000A164890ED111AF0EEE5
:10142000410A90ED101AB0EE410A01F0A5FADFED85
:10143000120A20EE200A124880ED000A0D4890EDB5
:10144000091AF0EE410A90ED0C1AB0EE410A01F0D3
:1014500093FADFED090A20EE200A0A4880ED000A1F
:1014600010BD00000AD7A33B08050020200500207E
:101470001405002044010020E12E654208010020EF
:101480000C0100201001002010B502F0D5FA01F087
:101490004BFE00226B21682002F0B8FA07221921C6
:1014A000682002F0B3FA02221A21682002F0AEFA94
:1014B00010221B21682002F0A9FA18221C216820A2
:1014C00002F0A4FA00221D21682002F09FFA00F029
:1014D00017F80748DFED070A9FED070A00F0EEFC5A
:1014E0000648F2EE040A9FED040A00F0E7FC10BD86
:1014F0001003002000004842000048432803002059
:10150000FEB54FF4FA70FFF733F9002400250026EA
:10151000002723E00020062301AA43210090682031
:1015200002F043FA9DF805009DF8041040EA0120FE
:1015300000B204449DF807009DF8061040EA01201F
:1015400000B205449DF809009DF8081040EA01200A
:1015500000B206440A20FFF70BF97F1C642FD9DB89
:10156000642094FBF0F000B206490880642095FBEB
:10157000F0F000B24880642096FBF0F000B2888062
:10158000FEBD00009E01002000BFFEE770B50021F7
:1015900000230F22C4781CB3174C246804F4E064C1
:1015A000C4F5E064C4F30721C1F10404E3B20A41C5
:1015B00044789C40E1B28478144021430C07210E0A
:1015C0000E4C05786155047804F01F050124AC40E9
:1015D00005786D11AD0005F1E025C5F8004109E081
:1015E000047804F01F050124AC40054D06787611FF
:1015F00045F8264070BD00000CED00E000E400E07E
:1016000080E100E002490143024A11607047000096
:101610000000FA050CED00E010B501212048FFF7AD
:1016200056F901281CD11F480078C8B901201D496E
:1016300008701D48007808B9012000E000201A4910
:1016400008704FF47F7019490880084603880288A3
:101650000188008801F01CFD3220FFF789F80BE0BB
:1016600001210F48FFF733F930B90E4800780128FF
:1016700002D100200B4908700D48007820B1FFF717
:101680009FFE00200A4908700A48007838B10020FF
:1016900000F00AF900F0AEF800200649087010BD0D
:1016A0000000024054000020520000207802002078
:1016B000510000205000002010B54FF400410E48AA
:1016C000FFF7CDF84FF480410B48FFF7C8F84FF40F
:1016D00000510948FFF7C3F84FF480510648FFF75F
:1016E000BEF84FF400610448FFF7B9F84FF4006109
:1016F0000148FFF7F5F810BD0010024010B5FFF7E4
:10170000DBFF4FF400413A48FFF7ECF84FF400518B
:101710003748FFF7E5F802F007F802F005F802F0A5
:1017200003F802F001F801F0FFFF4FF400513048D8
:10173000FFF7D8F8AE20FFF7F5FC0020FFF7F2FC2A
:101740001020FFF7EFFC4020FFF7ECFC8120FFF7B3
:10175000E9FCCF20FFF7E6FCA120FFF7E3FCC8205F
:10176000FFF7E0FCA620FFF7DDFCA820FFF7DAFC7E
:101770003F20FFF7D7FCD320FFF7D4FC0020FFF772
:10178000D1FCD520FFF7CEFC8020FFF7CBFCD92081
:10179000FFF7C8FCF120FFF7C5FCDA20FFF7C2FC19
:1017A0001220FFF7BFFCDB20FFF7BCFC4020FFF757
:1017B000B9FC2020FFF7B6FC0220FFF7B3FC8D2018
:1017C000FFF7B0FC1420FFF7ADFCA420FFF7AAFC44
:1017D000A620FFF7A7FCAF20FFF7A4FC0020FFF72F
:1017E00055FA00210846FFF788FCFFF733FA10BDD1
:1017F0000010024010B5244890ED000A234880ED07
:10180000000A214890ED010A204880ED010A1E4897
:1018100090ED020A1D4880ED020A1D4890ED000A75
:101820001A4880ED030A1A4890ED010A174880ED26
:10183000040A174890ED020A144880ED050A15487D
:1018400090ED000A114880ED060A134890ED000A59
:101850000E4880ED070A11480088114908800F489A
:10186000408848800D48808888800E480088C8805D
:101870000C48408808810B4880884881182103481B
:1018800002F040F910BD000020050020D402002025
:10189000FC040020080100200C010020920100201F
:1018A000F40200208C01002010B5044634B1012C54
:1018B00060D0022C5FD0032C5FD15DE03348D0EDC7
:1018C000000AB0EE600A022211460020FFF754FA27
:1018D0002E48D0ED010AB0EE600A0222032100205A
:1018E000FFF74AFA2948D0ED020AB0EE600A022258
:1018F00004210020FFF740FA2548D0ED000AB0EEA1
:10190000600A022205210020FFF736FA2048D0EDB8
:10191000010AB0EE600A022206210020FFF72CFA2D
:101920001B48D0ED020AB0EE600A02220721002017
:10193000FFF722FA1748008802B200210846FFF795
:101940006FFB0222144890ED000A11464020FFF779
:1019500013FA0222114890ED000A03214020FFF7FC
:101960000BFA02220E4890ED000A04214020FFF7F6
:1019700003FA08E007E006E005E00AA200210846B5
:10198000FFF7A2F900BF00BF10BD00001405002042
:101990002005002078020020080100200C01002012
:1019A0001001002053686F77204572726F7200003B
:1019B00029B1064A12680243044B1A6004E0034A44
:1019C00012688243014B1A607047000030380240B1
:1019D00029B1064A12680243044B1A6004E0034A24
:1019E00012688243014B1A60704700004038024081
:1019F00029B1064A12680243044B1A6004E0034A04
:101A000012688243014B1A6070470000443802405C
:101A100010B504462B48844204D101210846FFF743
:101A2000C7FF4EE02848844204D101210220FFF77D
:101A3000BFFF46E02548844204D101210420FFF77E
:101A4000B7FF3EE02248844204D101210820FFF77D
:101A5000AFFF36E01F48844204D101211020FFF778
:101A6000A7FF2EE01C48844204D101212020FFF76B
:101A70009FFF26E01948844204D101214020FFF74E
:101A800097FF1EE01648844204D101218020FFF711
:101A90008FFF16E01348844204D101218015FFF71F
:101AA00087FF0EE01048844204D101214015FFF762
:101AB0007FFF06E00D48844203D101210015FFF7A6
:101AC00077FF10BD00000240000402400008024001
:101AD000000C0240001002400014024000180240B6
:101AE000001C024000200240002402400028024066
:101AF000F0B5002100220024022500260223324FE7
:101B00003F6807F00C0121B1042905D0082937D11D
:101B100005E02E4F076036E02D4F076033E02A4F77
:101B20003F1F3F68C7F38056274F3F1F3F6807F0AE
:101B30003F036EB1264FB7FBF3F7DFF88CC0ACF173
:101B4000040CDCF800C0CCF3881C07FB0CF40CE0A0
:101B50001E4FB7FBF3F7DFF870C0ACF1040CDCF8F4
:101B600000C0CCF3881C07FB0CF4174F3F1F3F68E5
:101B7000C7F301477F1C7D00B4FBF5F7076002E067
:101B8000124F076000BF00BF0F4F3F6807F0F00122
:101B90000909104F7A5C0768D74047600A4F3F68D1
:101BA00007F4E051890A0B4F7A5C4768D740876099
:101BB000054F3F6807F46041490B064F7A5C476860
:101BC000D740C760F0BD0000083802400024F40090
:101BD00000127A00A401002010B54FF40051114802
:101BE000FEF77EFE01F0B4FE4FF400510D48FEF703
:101BF00079FE01F0ADFE4FF400410A48FEF767FEA2
:101C000030B14FF400510748FEF76AFE002010BDC6
:101C10004FF400510348FEF763FE01F099FE0120E6
:101C2000F5E70000000C0240014908607047000021
:101C3000382C014001460020034A12680A400AB1CC
:101C4000012000E000207047342C014010B500F066
:101C500017F810BD0021094B02681A601A1D11689F
:101C60006FF30A01D0E901231A43C3681A430369D9
:101C70001A431143014A121D11607047082C01409C
:101C800000B585B04FF48070FFF7D4FF78B34C48AF
:101C90000078012813D1002000900C2001904020F2
:101CA0000290002003904FF4806004906846FFF794
:101CB000D1FF0C20FEF7BCFB4249087002E0002077
:101CC000404908704048006840F480703E49086010
:101CD000081D00684CF23A3188433B49091D0860F1
:101CE00001203A4908703748007805B000BDFFE789
:101CF0000220FFF79FFF78B10220FFF795FF3248DF
:101D0000001D00684CF23A3188432F49091D0860D4
:101D100002202C490870E8E70820FFF78BFF78B114
:101D20000820FFF781FF2848001D00684CF23A3177
:101D300088432549091D0860042022490870D4E71A
:101D40002020FFF777FF78B12020FFF76DFF1E48B6
:101D5000001D00684CF23A3188431B49091D086098
:101D6000062018490870C0E71020FFF763FF78B11C
:101D70001020FFF759FF1448001D00684CF23A315B
:101D800088431149091D086005200E490870ACE719
:101D90004FF40070FFF74EFF80B14FF40070FFF773
:101DA00043FF0948001D00684CF23A318843064958
:101DB000091D086007200349087096E7002094E792
:101DC000B1000020B3000020382C0140B2000020F8
:101DD0000CB50020019000903448006840F4803039
:101DE0003249086000BF3148006800F400300090BC
:101DF0000198401C0190009818B90198B0F5A04FC7
:101E0000F1D12A48006800F4003010B101200090A0
:101E100001E0002000900098012846D1234840307E
:101E2000006840F080502149403108602048006837
:101E300040F440401E4908601C48083000681B49B7
:101E4000083108600846006840F400400860084611
:101E5000006840F4A05008601648091F0860081F79
:101E6000006840F08070091F086000BF0F480068DC
:101E700000F000700028F9D040F205700E490860AB
:101E80000A480830006820F003000849083108605B
:101E90000846006840F00200086000BF03480830B0
:101EA000006800F00C000828F8D10CBD0038024092
:101EB0000070004008544007003C024010B52DED72
:101EC000068BF0EE409AF0EE608A044689EEA80A8E
:101ED000B0EE40AA9FED2C0AC0EE0A0AF0EE60AA0E
:101EE000B0EE6A0A00F056FFB0EE408A9FED270A76
:101EF00000F06AFEF0EE000A60EE200AB7EE000A7B
:101F000000EE880A08EE080AB0EE409AF5EEC08AA4
:101F1000F1EE10FA02D8BDEC068B10BD28EE080ACF
:101F2000C0EE090AC4ED030A94ED030AF0EE000ABC
:101F300020EE200A84ED040A94ED030A84ED050ADC
:101F4000B7EE000A84ED000AB7EE000A18EE080AA0
:101F5000F0EE000A20EE200AC0EE090AC4ED010AE4
:101F60009FED0A0A00F030FEF0EE000A60EE200A53
:101F7000B7EE000A00EEC80A08EE080AC0EE090A29
:101F8000C4ED020A00BFC6E7DB0F4940DB0F493F43
:101F900030B50146481EB0F1807F01D3012030BD2D
:101FA000481E4FF0E022506150170F22002807DA38
:101FB00013071D0E094B00F00F04241F1D5503E0ED
:101FC00013071C0E064B1C5400BF00204FF0E022EC
:101FD0009061072010610020E1E7000018ED00E0AB
:101FE00000E400E010B500F089FA10BD10B5154806
:101FF000006840F47000134908601348006840F01E
:1020000001001149086000200F49083108600E489E
:1020100000680E4908400C4908600D48091D086019
:10202000081F006820F48020091F0860002006496E
:102030000C310860FFF7CCFE4FF000600149803999
:10204000086010BD88ED00E000380240FFFFF6FE9A
:102050001030002410B50121880700F09EF818B157
:102060000121880700F08AF810BD000010B5012199
:102070001E4800F092F8002837D01D480078401C18
:102080001B49087001201B49087019480078042872
:102090000CD100201649087001201749087001F082
:1020A0002DFB16480078401C14490870134800782E
:1020B000052816D112480088B0F5AF6F0EDA114826
:1020C000007858B10E4908880988491C0C4B1980C2
:1020D00019460B880A88098800F0DAFF00200749B2
:1020E00008700121014800F049F810BD00040040CB
:1020F0007A02002051000020500000207B020020C6
:1021000078020020520000207FB505460C460121D0
:102110000220FFF75DFC0295ADF804400020ADF809
:102120000600ADF80C0001A90D4800F0A5F9012248
:1021300011460B4800F042F80121094800F021F84F
:102140001D208DF8000001208DF8010003208DF87E
:10215000020001208DF803006846FFF717FA7FBDE3
:102160000004004021B1028842F08002028004E0B5
:1021700002884FF67F731A4002807047CA4302827A
:10218000704721B1028842F00102028004E0028817
:102190004FF6FE731A400280704730B502460020A9
:1021A00000230024158A05EA0103958905EA010444
:1021B00013B10CB1012000E0002030BD1AB18389B9
:1021C0000B43838102E083898B4383817047000046
:1021D00070B5002400220023058C4FF6FE763540B2
:1021E0000584028C8388048B4FF68F752C40B51EB6
:1021F0002C400D882C43751E2A408D892A434D881A
:102200002A43104DA84202D00F4DA84213D14FF6D9
:10221000F7752A40CD892A434FF6FB752A408D88F1
:102220002A434FF6FF652B404FF6FF552B400D8A92
:102230002B434D8A2B43838004838D68456302843E
:1022400070BD000000000140000401400A4600216A
:10225000018B4FF6F773194011430183704700005B
:1022600070B5002400220023058C4FF6EF76354030
:102270000584028C8388048B48F6FF752C404FF64A
:10228000FF452C400D884FF6FF7606EA05252C43C6
:102290004FF6DF752A408D8906EA05152A434D88D9
:1022A00006EA05152A43154DA84202D0144DA8424E
:1022B0001DD14FF67F752A40CD894FF6FF7606EA8D
:1022C00005152A434FF6BF752A408D8806EA051585
:1022D0002A434FF6FF352B404FF2FF752B400D8AF6
:1022E00006EA85052B434D8A06EA85052B43838044
:1022F00004838D688563028470BD00000000014086
:10230000000401400A460021018B4FF2FF7319407F
:102310004FF6FF7303EA022319430183704700005D
:1023200070B5002400220023058C4FF6FF6635406F
:102330000584028C8388848B4FF68F752C404FF672
:10234000FC752C400D882C434FF6FF552A408D8993
:102350004FF6FF7606EA05252A434D8806EA05254D
:102360002A43154DA84202D0144DA8421DD14FF268
:10237000FF752A40CD894FF6FF7606EA05252A43E8
:102380004FF6FF352A408D8806EA05252A434EF68A
:10239000FF752B404DF6FF752B400D8A06EA05159B
:1023A0002B434D8A06EA05152B43838084838D6871
:1023B000C563028470BD00000000014000040140BC
:1023C0000A460021818B4FF6F77319401143818330
:1023D0007047000070B5002200230024058C4EF6E3
:1023E000FF7635400584038C8488828B48F6FF7520
:1023F0002A404FF6FF452A400D884FF6FF7606EA41
:1024000005252A434DF6FF752B408D8906EA0535D3
:102410002B434D8806EA05352B430A4DA84202D0CE
:10242000094DA84208D14BF6FF752C400D8A4FF696
:10243000FF7606EA85152C43848082838D680564C7
:10244000038470BD00000140000401400A460021E1
:10245000818B4FF2FF7319404FF6FF7303EA02239B
:102460001943818370474163704781637047C1633B
:10247000704701647047000000220288184B9842A0
:102480000ED0184B98420BD0B0F1804F08D0164BAD
:10249000984205D0154B984202D0154B984204D172
:1024A0004FF68F731A404B881A43124B984207D04D
:1024B000114B984204D04FF6FF431A400B891A4340
:1024C00002804B68C3620B880385054B984202D09B
:1024D000044B984201D18B7A038601238382704793
:1024E00000000140000401400004004000080040DA
:1024F000000C004000100040001400400448006838
:1025000020B103480068401E014908607047000080
:102510000802002010B540F22551054800F0EBF804
:1025200028B103488088C4B2204600F0A9F810BD45
:102530000010014070B596B004460D4616464FF4A3
:10254000A060FFF75FF825208DF85400E8B28DF801
:102550005500F0B28DF8560001208DF8570015A8EF
:10256000FFF714F801211020FFF742FA0121084675
:10257000FFF71EFA01218805FFF71AFA46208DF8A9
:10258000540002208DF8550000208DF856000120DF
:102590008DF8570015A8FEF7F9FF3548FDF7B4FF91
:1025A00000BF3348FEF75CF80028FAD14FF0006016
:1025B0000090304801903048029040200390142051
:1025C0000490002005904FF4806006900020079052
:1025D000089009904FF440300A9000200B900120A1
:1025E0000C9000200D900E9069462148FEF792F85D
:1025F000012210211E48FEF76FF8072209211F480B
:10260000FEF742F907220A211C48FEF73DF94FF474
:10261000C060139002208DF850008DF8510013A96E
:102620001648FEF7BFF80F940020ADF84000ADF853
:102630004200ADF84400ADF848000C20ADF846006B
:102640000FA90C48001F00F081F8012280210948E1
:10265000001F00F03AF840F225510648001F00F034
:102660001FF801210348001F00F023F816B070BDC9
:10267000B864024004100140D80B00200000024062
:1026800010B50446C4F308000449888000BF402107
:10269000024800F023F80028F9D010BD00100140D6
:1026A00001F40072B2F5007F00D100BFCA4302807E
:1026B000704721B1828942F40052828104E082890C
:1026C0004DF6FF731A40828170471AB1838A0B431B
:1026D000838202E0838A8B43838270470246002014
:1026E000B1F5007F00D100BF13880B400BB1012072
:1026F00000E00020704770B502460024002300254A
:10270000002040F66A16B14200D100BFC1F3421565
:1027100001F01F03012606FA03F3012D02D1968969
:10272000334006E0022D02D1168A334001E0968A3A
:1027300033400C12012606FA04F41688344013B113
:102740000CB1012000E0002070BD00002DE9FF4722
:1027500005460E460024A14600BFA046B08900B140
:1027600000BF2C8A24F44054F08804432C82AC89A6
:1027700041F20C608443B088318908437189084371
:102780000443AC81AC8A24F44074B0890443AC8225
:102790006846FFF7ADF92048854202D01F488542C0
:1027A00002D1DDF80C9001E0DDF80890A88900F472
:1027B000004040B109EBC90000EB09103168490045
:1027C000B0FBF1F707E009EBC90000EB0910316835
:1027D0008900B0FBF1F76420B7FBF0F00401200999
:1027E000642101FB1078A88900F4004040B1322038
:1027F00000EBC800B0FBF1F000F00700044308E074
:10280000322000EB08106421B0FBF1F000F00F0063
:1028100004432C81BDE8FF870010014000140140F3
:1028200000BFFEE74100080218BF04200A0E18BFCF
:1028300040F001004FF07F4232EA010108BF40F052
:102840000200012808BF05207047000010B54FF0B6
:102850000E402DED028BB0EE408A18EE104A00EBD0
:102860004400B0F1506F4AD84FF0FC40B0EB440F39
:1028700022D2B0EEC80AF7EE000A30EEC00AF6EE39
:10288000000A60EE208A18EE900A01F0EBF801EEE3
:10289000100A14F0004F1DBFDFED2D0A9FED2D0A29
:1028A000B1EE411ADFED2C0A08BF9FED2C0AF8EEBD
:1028B000001A21EE218A05E0DFED290A68EE088A78
:1028C000B0EE600A9FED271ADFED271A30EE080AF6
:1028D00048EE811A9FED251A08EEA11ADFED241AA1
:1028E00048EE811A9FED231A08EEA11A68EE281A05
:1028F000BDEC028B01EE810A30EE200A10BD4FF0D4
:10290000E440B0EB440F0CD918EE100AFFF78AFF31
:10291000042808BF00F00AFBB0EE480ABDEC028BA9
:1029200010BD4FF07F40B0EB440F07D2B0EE480A25
:10293000BDEC028BBDE8104000F0EABA0120FDF7C3
:1029400000FDBDEC028BBDE8104000F0E7BA0000CE
:102950000000C9BF22AAFDB90000C93F22AAFD3963
:102960000000000024FE1C3DC78AD83C1E67383D8D
:102970001B93993DAFAA2A3E10EE100A10B510EE37
:10298000901A4FF0684202EB40032DED028BB3F139
:10299000654F3CBF02EB4102B2F1654F7CD200BFF4
:1029A000C0F3C753C1F3C7529A1A1B2A09DD10F0AE
:1029B000004F14BF9FED6E0A9FED6E0ABDEC028BB7
:1029C00010BD12F11A0F1BDA11F0004F09D010F0F0
:1029D000004F0CBF9FED680A9FED680ABDEC028BAB
:1029E00010BD80EE208A18EE100AFFF71BFF0428A6
:1029F00008BF00F09BFAB0EE480ABDEC028B10BD98
:102A00004200B2EB410F37D910F0004F19BFDFED94
:102A10005C1A9FED5C1ADFED5C1A9FED5C1AB0EE5C
:102A2000602A0A46F1EE400A80F00041B0EE420A08
:102A300010460A1A5200B2F1807F34D2484010F09A
:102A4000004FDFED532A9FED533A1DBFBEEE002A23
:102A500071EEE21A31EE431AB6EE002A04BF71EEAF
:102A6000A21A31EE031AF0EE402A42EE602A40EE3E
:102A7000020A82EEA02A18E011F0004F04BF9FED79
:102A8000461AF0EE411AD4D010F0004F1CBFDFED13
:102A9000431A9FED431A00E026E004BFDFED411A20
:102AA0009FED411AC5E780EE202A22EE020ADFEDF3
:102AB0003F0ADFED3F2ABDEC028B40EE202ADFED1E
:102AC0003D0A40EE220ADFED3C2A40EE202ADFEDEF
:102AD0003B0A40EE220A22EE000A00EE201A31EEF6
:102AE000020A30EE210A10BD4FF07F42B2EB400FD8
:102AF00028BFB2EB410F05D2BDEC028BBDE8104000
:102B000000F009BA40EA01035B0008BF41F0FF4151
:102B10000BD0B2EB400F08BFB2EB410F08D120F051
:102B2000804000EE100A21F0804100EE901A37E755
:102B3000B2EB400F12BF5FEA410240F0FF4001F0EC
:102B400000413FF42DAF4A0092EA40033FF528AF21
:102B5000002AACBF9FED1A1A9FED1A1A20EE010A47
:102B600060EE810A10EE100A10EE901A18E70000CD
:102B7000DB0FC9BFDB0FC93FDB0F4940DB0F49C08B
:102B80000000C9BF22AAFDB90000C93F22AAFD3931
:102B90000060ED3EC30ACE3700000000000049C0CF
:102BA00022AA7DBA0000494022AA7D3A2DAD65BD1A
:102BB0008FB8D53D0FB511BE61C84C3EA8AAAABEBC
:102BC0000000804F0000802F10EE101A08B5444A14
:102BD0006846B2EB410F28D94FF0E640B0EB410F09
:102BE00094BF00204FF0FF3000900098002861DB78
:102BF00060EE000A10F0010F45D010F0020FDFED7B
:102C0000391A9FED391A00EEE11ADFED381A40EE5D
:102C1000811A21EEA01AF0EE400A40EE010A08BF28
:102C2000F1EE600AB0EE600A08BD314B21F00042BF
:102C300093423CD911F0004FDFED2E0A20EE201A0E
:102C4000DFED2D0A19BF31EE601A71EE200A31EE68
:102C5000201A71EE600ABDEEE01A11EE100A9FED27
:102C6000271A00F0030000EEC10A9FED251A00901C
:102C700000EEC10A9FED231A00EEC10A9FED221A51
:102C800000EEC10AB1E79FED211A9FED210A10F075
:102C9000020F00EE810A9FED1F1A00EE801AB7EEB8
:102CA000000A00EE810A18BFB1EE400A08BD00F02C
:102CB00045F99AE710EE100A4000B0F17F4F3CBF93
:102CC000B7EE000A08BD07D14FF00100FDF739FB50
:102CD000BDE8084000F022B9BDE8084000F018B98E
:102CE000B61F927E336D4C39DA82083CA0AA2ABE08
:102CF000490E494683F9223F0000004B0000C93FBE
:102D000000A0FD390020A2331A61342CB93AB2BABE
:102D1000CA9F2A3DDDFFFFBE00B52DED048BB0EE4E
:102D2000409AF0EE609A83B051EC190B00F0D6FF98
:102D300041EC180B18EE100A18EE901A8DED008B6E
:102D4000002818BF0120084320F00040C0F17F6038
:102D500000F1E040C00F14D019EE101A19EE900ADD
:102D60008DED009B002918BF0121084320F0004091
:102D7000C0F17F6000F1E040C00F04BF0120FDF70B
:102D8000E0FAB0EE480A03B0F0EE680ABDEC048B3E
:102D900000BD000000B510EE101A2DED028B81B0C1
:102DA0004D4A6846B2EB410F3CD94FF0E640B0EBDC
:102DB000410F94BF00204FF0FF3000900098B0EE1C
:102DC000408A00285FDB28EE080ADFED440A9FED09
:102DD000441A00EE201ADFED430A40EE010A9FED8F
:102DE000421A00EE201ADFED410A10F0010F40EE0A
:102DF000010A9FED3F1A00EE201A61EE000AB0EEC4
:102E0000480A08EE200A02BF01B0BDEC028B00BDEB
:102E1000BFEE001A01B0C1EE000ABDEC028BB0EEAD
:102E2000600A00BD334B21F00042934228D911F0D3
:102E3000004FDFED310A20EE201ADFED300A19BF16
:102E400031EE601A71EE200A31EE201A71EE600A3E
:102E5000BDEEE01A11EE100A9FED291A00F00300F2
:102E600000EEC10A9FED271A009000EEC10A9FED07
:102E7000261A00EEC10A9FED251A00EEC10A9DE751
:102E800000F05CF89AE718EE100A4000B0F17F4FAE
:102E90000DD218EE100AFFF7C5FC042808BF00F099
:102EA00045F8B0EE480A01B0BDEC028B00BD09D177
:102EB0000120FDF746FA01B0BDEC028B5DF804EB92
:102EC00000F02CB801B0B0EE480ABDEC028B5DF802
:102ED00004EB00F01DB80000B61F927EBBE9223C57
:102EE0000C6D063B8A76CE3CACB5593D35A1083E0B
:102EF00029AAAA3E490E494683F9223F0000004B09
:102F00000000C93F00A0FD390020A2331A61342C13
:102F100030EE000A704730EE200A7047DFED020AFB
:102F200080EEA00A70470000000000009FED020A3A
:102F300020EE000A70470000000000102DE9F001AB
:102F40004FF07F42B2EB410F9FBF4FF0FF31016066
:102F5000BDE8F00170474FF0004242EA0123C1F39F
:102F6000C752783A551112F01F0C434CCCF1200691
:102F70007C44C1F3C752A2F178024FEA621204EB1B
:102F8000820254F8254008BFD2E9015612D0556894
:102F900004FA0CF425FA06F73C43976805FA0CF599
:102FA00027FA06F8D26807FA0CFCF24045EA080551
:102FB0004CEA0206A4FB034CA5FB0352A6FB0363E9
:102FC0001D449D4234BF012600261319334416B117
:102FD000934202D903E0934201D2012200E0002291
:102FE000624402F1200C9206DC0C42EA443200EE0C
:102FF000102A5B03DFED210AF8EEC01A00EE103A4A
:103000004FEA9C1C11F0004FB8EE400AC0F800C017
:1030100020EE201A00EE105ADFED190AB8EE400A31
:1030200020EE200A71EE810A70EE800A10EE902ADE
:1030300002F500626FF30B0200EE902A70EEE11AC7
:1030400031EEC11ADFED101A30EE411A9FED0D0A74
:1030500020EE800A01EE210A9FED0C1A00EE810A93
:1030600004BFBDE8F0017047CCF180510160BDE8BC
:10307000F001B1EE400A7047201200000000003657
:103080000000802C22AAFD29DB0FC92F0000C92FC8
:1030900010B5B0F57A7F04DDB0F5FA6F01DA0446B9
:1030A00001E0154C24882046B1F57A7F04DDB1F5A6
:1030B000FA6F01DA0C4601E00F4C64882146B2F544
:1030C0007A7F04DDB2F5FA6F01DA144601E00A4CAA
:1030D000A4882246B3F57A7F04DDB3F5FA6F01DAEE
:1030E0001C4601E0044CE4882346034C20806180A8
:1030F000A280E38010BD0000CC02002070B5054620
:103100000C46224629460648FDF7CEF8A1B20548EE
:10311000FDF72CFB01210348FDF7EAF970BD000023
:10312000D80B0020B864024010B5002408E000224B
:103130007521682000F014FC04460A20FDF718FBF6
:10314000712CF4D110BD00005148D0ED064A64EE58
:10315000A44AB0EE640AD0ED074A64EEA44AF0EE49
:10316000640AD0ED084A64EEA44AB0EE641AD0EDC9
:10317000054A90ED065A64EE854AF0EE641AD0EDE9
:10318000054A90ED075A64EE854AB0EE642AD0ED08
:10319000054A90ED085A64EE854AF0EE642AD0EDB7
:1031A000064A90ED075A64EE854AB0EE643AD0EDD7
:1031B000064A90ED085A64EE854AF0EE643AD0ED86
:1031C000074A90ED085A64EE854AB0EE644AF7EE7D
:1031D000004AB0EE005A45EE604AB0EE005A45EEA5
:1031E000414AC0ED094AF1EE624A73EE244AB0EE5C
:1031F000005A64EE854AC0ED0A4AF1EE424A73EE87
:10320000E44AB0EE005A64EE854AC0ED0B4AF1EE96
:10321000624A73EE644AB0EE005A64EE854AC0ED2D
:103220000C4AF7EE004AB0EE005A45EE404AB0EEC6
:10323000005A45EE414AC0ED0D4AF1EE614A74EE86
:10324000244AB0EE005A64EE854AC0ED0E4AF1EE13
:10325000424A73EEA44AB0EE005A64EE854AC0EDCD
:103260000F4AF1EE614A74EE644AB0EE005A64EE21
:10327000854AC0ED104AF7EE004AB0EE005A45EE1E
:10328000404AB0EE005A45EE604AC0ED114A704720
:103290004401002000B52DED0A0B2DED108B87B0F9
:1032A000F0EE648AB6EE000A28EE800AF0EE409A4C
:1032B0009DED170ADFEDFD0A20EE200A8DED170ABD
:1032C0009DED180ADFEDF90A20EE200A8DED180AAF
:1032D0009DED190ADFEDF50A20EE200A8DED190AA1
:1032E000DDED1A0A60EEA00A9DED1B1ADDED1B1A3A
:1032F00041EE210A9DED1C1ADDED1C1A41EE210A5A
:10330000B0EE600A00F0D6F9B0EE408A9DED1A0AE0
:1033100020EE080A8DED1A0A9DED1B0A20EE080A20
:103320008DED1B0A9DED1C0A20EE080A8DED1C0A8E
:10333000DDED1D0A60EEA00A9DED1E1ADDED1E1AE0
:1033400041EE210A9DED1F1ADDED1F1A41EE210A03
:10335000B0EE600A00F0AEF9B0EE408A9DED1D0AB5
:1033600020EE080A8DED1D0A9DED1E0A20EE080ACA
:103370008DED1E0A9DED1F0A20EE080A8DED1F0A35
:103380009DED1D0ACA48D0ED090A20EE200ADDEDA8
:103390001E0A90ED0A1A00EE810ADDED1F0A90ED7B
:1033A0000B1A00EE810A8DED050A9DED1D0AD0ED88
:1033B0000C0A20EE200ADDED1E0A90ED0D1A00EE3B
:1033C000810ADDED1F0A90ED0E1A00EE810AF0EE83
:1033D00040EA9DED1D0AD0ED0F0A20EE200ADDED3A
:1033E0001E0A90ED101A00EE810ADDED1F0A90ED25
:1033F000111A00EE810AB0EE409A9DED050A20EE0A
:10340000000A0EEEAE0A10EE101A084600F032FD69
:10341000CDE900019DED000BFFF77EFC8DED020B69
:103420009DED020B51EC100B00F08AFB0AEE100A26
:10343000F0EE49AA9E4890ED090A20EE0A0AD0ED66
:103440000F0A0AEEA00AB0EE40FA90ED0A0A20EE4A
:103450000A0AD0ED100A0AEEA00A8DED040A90EDDA
:103460000B0A20EE0A0AD0ED110A0AEEA00AF0EECD
:1034700040FA9DED1B0AD0ED110A20EE200ADDED89
:103480001C0A90ED101A00EEC10ADDED1E0A00EED6
:10349000AF0A9DED1F1ADDED040A01EE600AB0EEE1
:1034A00040DA9DED1C0AD0ED0F0A20EE200ADDED7A
:1034B0001A0A90ED111A00EEC10ADDED1F0A00EEA6
:1034C0008F0ADDED1D0A00EEEF0AF0EE40DA9DED09
:1034D0001A0AD0ED100A20EE200ADDED1B0A90ED4D
:1034E0000F1A00EEC10A9DED1D1ADDED040A01EE72
:1034F000200ADDED1E0A00EECF0AB0EE40EA90EDA4
:10350000020AD0ED010A60EE8D0A00EEA80A80EDF5
:10351000020A90ED030AD0ED010A60EEAD0A00EE5A
:10352000A80A80ED030A90ED040AD0ED010A60EECE
:103530008E0A00EEA80A80ED040A90ED020AD0ED92
:10354000000A00EE8D0ADDED170A30EE200A8DED3F
:10355000170A90ED030AD0ED000A00EEAD0ADDED8A
:10356000180A30EE200A8DED180A90ED040AD0ED0D
:10357000000A00EE8E0ADDED190A30EE200A8DED0C
:10358000190A90ED050AB0EE40BA90ED060AF0EE89
:1035900040BA90ED070AB0EE40CA90ED080AF0EE8E
:1035A00040CA9DED170AF1EE6B0A20EE200ADDED10
:1035B000180A0CEE600ADDED190A0CEEE00AD0EDF7
:1035C000050A40EE290AC0ED050A9DED170A20EE16
:1035D0000B0ADDED190A0CEE200ADDED180A0CEEDF
:1035E000E00AD0ED060A40EE290AC0ED060A9DED7C
:1035F000180A20EE0B0ADDED190A0BEEE00ADDEDEC
:10360000170A0CEEA00AD0ED070A40EE290AC0ED19
:10361000070A9DED190A20EE0B0ADDED180A0BEEE4
:10362000A00ADDED170A0CEE600AD0ED080A40EEA4
:10363000290AC0ED080AD0ED050A60EEA00A90ED57
:10364000061AD0ED061A41EE210A90ED071AD0EDC8
:10365000071A41EE210A90ED081AD0ED081A41EE42
:10366000210AB0EE600A00F025F8B0EE408A10485A
:1036700090ED050A20EE080A80ED050A90ED060A95
:1036800020EE080A80ED060A90ED070A20EE080AEF
:1036900080ED070A90ED080A20EE080A80ED080A7E
:1036A00007B0BDEC108B0AB000BD000035FA8E3CAF
:1036B00044010020F0EE400AF6EE001A60EEA11A76
:1036C000B0EE611AB0EE600A10EE100A0749A1EBE5
:1036D000600000EE100A21EE002AF7EE081A42EE12
:1036E000401A61EE801AB0EE610A7047DF59375F09
:1036F00000F0D8F901E0FDF78FFFFCE708480088EB
:103700000849086006484088091D08600448808808
:10371000091D08600248C088091D08607047000044
:10372000CC02002034080040002000E0401C0528A6
:10373000FCD3704700B58BB001210420FEF748F997
:1037400001210220FEF734F9022206214948FDF743
:103750009BF8022207214748FDF796F8022208212C
:103760004448FDF791F8022209214248FDF78CF800
:103770004FF47070099002208DF8280003208DF816
:10378000290000208DF82A0001208DF82B0009A9BE
:103790003848FDF707F85320ADF818000020ADF8C1
:1037A0001A0044F61F6007900020ADF8200006A91B
:1037B0003148FEF761FE6020ADF804000120ADF84D
:1037C00006000020ADF8100001A92B48FEF700FD0F
:1037D00001A92948FEF744FD01A92748FEF7A0FDED
:1037E00001A92548FEF7F6FD08212348FEF72EFD26
:1037F00008212148FEF786FD08211F48FEF7E0FD5D
:1038000008211D48FEF722FE01211B48FEF7AAFCF5
:1038100001211948FEF7B5FC40F6B8311648FEF70D
:1038200022FE40F6B8311448FEF71FFE40F6B831CC
:103830001148FEF71CFE40F6B8310F48FEF719FE9E
:103840004FF4FA60FCF794FF4FF47A710A48FEF7E0
:103850000AFE4FF47A710848FEF707FE4FF47A71BA
:103860000548FEF704FE4FF47A710348FEF701FEA7
:103870000BB000BD000402400008004070B50646D1
:1038800000244FF400511B48FDF72AF800F060F8BF
:103890004FF400411748FDF725F800251BE000F024
:1038A00057F84FF400511348FDF71AF800F050F89C
:1038B0004FF400510F48FDF715F800F049F8600685
:1038C000040E4FF400410B48FDF701F808B1601CED
:1038D000C4B2681CC5B2082DE1DB4FF400510548A5
:1038E000FCF7FEFF00F034F83046FDF753F92046B0
:1038F00070BD0000000C024070B5044608251DE0B4
:1039000004F0800028B14FF400411048FCF7EAFFB2
:1039100004E04FF400410D48FCF7E2FF6006040E9E
:1039200000F016F84FF400510848FCF7DBFF00F0F8
:103930000FF84FF400510548FCF7D2FF2800A5F11D
:103940000101CDB2DCD1FEF747F970BD000C024099
:103950001E2000BF0100A0F1010290B2FAD1704711
:103960002DE9F04104460D461646FDF739F90021D0
:1039700041EA4401C8B2FFF7BFFF2846FFF7BCFF8A
:10398000012E01D1FDF748F9FDF72AF9012101EBDC
:103990004401C8B2FFF7B0FF0020FFF76FFF0746F2
:1039A000FDF73AF93846BDE8F0812DE9F0410546CA
:1039B0000E4614461F46DDF81880FDF711F9002168
:1039C00041EA4501C8B2FFF797FF3046FFF794FF81
:1039D000B8F1010F01D1FDF71FF9FDF701F9012140
:1039E00001EB4501C8B2FFF787FF04E00120FFF7B4
:1039F00045FF2070641C781EC0B20700F6D1FFF7A7
:103A00003DFF2070FDF708F9BDE8F08170B5044670
:103A10000D461646FDF7E4F8002141EA4401C8B21C
:103A2000FFF76AFF2846FFF767FF3046FFF764FF9E
:103A3000FDF7F2F870BD00001CB501210820FDF76C
:103A4000B7FF4FF42040009001208DF804000220C1
:103A50008DF8050069460248FCF7A4FE1CBD000075
:103A6000000C024010B500EE100A2DED028BB1EEF5
:103A7000C08A18EE100A20F00040C0F1FF40C00FCD
:103A80000AD010EE100A20F00040C0F1FF40C00F35
:103A900004BF0120FCF755FC18EE100ABDEC028BA8
:103AA00010BD000010B54FF4A060FDF7ABFDFDF7B1
:103AB00025FEFDF7E9FCFFF73DFE02210F48FCF76C
:103AC000CEFE01210D48FCF7B5FE02210C48FCF7A3
:103AD000C6FE012203214FF4E130FEF72BFD022147
:103AE0000648FCF7FDFE02210448FCF7FBFE5321CB
:103AF00041F28730FEF708FB10BD000000000240D5
:103B00000010024030B589B005460C460A480088CE
:103B1000ADF80000224629460DF10200FCF7C4FB77
:103B20000DF102002044054909880180211D6846E5
:103B3000FFF7E4FA09B030BD1002002012020020A5
:103B400021F00042A2F16052B2F5801F01F0004363
:103B500028BFD2F17F6C0BD95FEA001C43EAC20296
:103B600042EB507018BF704728BF20F0010070472B
:103B7000B2F5801FBCBF184670474FEA410C1CF5D8
:103B8000001F02D2084600F0EBB970B500F052F801
:103B900000000089FFF7F6BF4FF00040A0F580005D
:103BA0007047491058BFC1F140415B1058BFC3F185
:103BB00040438B42EFF300807047000051EA030C52
:103BC00017D41CF5801F58BFBCF5801F00F106807C
:103BD000994218BF704708BF9042704707D711F548
:103BE000801F58BF13F5801F19D49942704789422E
:103BF00070471CF5801F08D5BCF5801FF7D58B4298
:103C000018BF704708BF824270474FF4001C1CEB7E
:103C1000410F38BF1CEB430F01D28B42704770B588
:103C200000F008F8922449004FF000514FF0805303
:103C3000FFF7B7BF0EF1020E2EF0030E5EF8046B15
:103C4000364205D4012A43EB030515F5001F12D8AF
:103C5000012841EB010C1CF5001F0CD80ED14FEAD6
:103C6000D17C15F5001F0CEB4C0C0CF1020C08BFBD
:103C70004CEBD37C04E04FF0080C01E04FEAD37C1E
:103C80000CEB4C0526FA05F606F00706B6F1040C17
:103C900006D20EEB860CBDE870404CF0010C60477C
:103CA000DFE80CF0090B02024FF000414FF000007A
:103CB000A1F5002170BD19461046012851EB010401
:103CC00018BFD4F5001484BF002001F0004170BD7E
:103CD0000808A0F500114FEA310170472DE9F041C5
:103CE00001F5801CBCF5001FC0F2A9804FEA115CF1
:103CF00021EA0C510CF1FD0C41F480115FEA5C0CDF
:103D00000CF5C07C01D34000494130A4890241EA4E
:103D1000905187028E0E0A0CA45D04FB04F602FB90
:103D200006F6C6F14046A4FB0662F60D46EA4226B8
:103D300006FB06F4A4FB01235242C3F1404338BF03
:103D40005B1EA6FB02420024E6FB0324D20B42EAE0
:103D50004446A6FB0623A1FB02E2A3FB07E4E3FB28
:103D600061426442C2F1404E38BFAEF1010EA6FB83
:103D700004234FF00002E6FB0E32A2FB03463400A0
:103D8000E2FB6264A1FB06E6A4FB07E8E4FB6168D2
:103D90007642C8F1405838BFA8F10108A2FB06E4FA
:103DA000A3FB08E5E2FB6854A1FB05E6A7FB04E8DA
:103DB000E1FB648618F1200556F10006A809A8F178
:103DC0001B08B10908F03F08B8F10A0F40EA866005
:103DD0001CD901EB0C51BDE8F08100BFFCF5EEE809
:103DE000E2DDD8D3CFCBC7C3C0BDB9B6B4B1AEAC9A
:103DF000A9A7A5A3A19F9D9B9A9896959392908F12
:103E00008D8C8B898887868584838281A0FB00685E
:103E100000FB01F208EB4208B8EB872807D53418FD
:103E200058EB0104D5D5401C51F10001D1E7341AFB
:103E300078EB0104CDD4401E71F10001C9E75FEABF
:103E40004C0C5FEA9C5C0DD105D34FF0000001F0F3
:103E50000041BDE8F081BDE8F04170B5FFF7EAFE32
:103E60006DDBFFBEBDE8F0414FF000000049704738
:103E70000000F87F43004FEAD30C4FEA3C0C43406C
:103E80001FBF40070CF1605113F0FE4F70471CF04C
:103E9000006F03D100200CF0004170470CF000438C
:103EA00043EA507010B540EACC0000F00EF800BFB5
:103EB000000000924FEA0001FFF70ABF4FF00041F7
:103EC0004FF00000A1F5002170470EF1020E2EF018
:103ED000030E5EF8044B244204D44FEA4102B2F1CF
:103EE0007F4F11D84FEA4003B3F17F4F0CD80ED16A
:103EF0004FEAD07CB2F17F4F0CEB4C0C0CF1020C72
:103F000008BF4CEBD17C04E04FF0080C01E04FEA15
:103F1000D17C0CEB4C0324FA03F404F00704B4F155
:103F2000040C06D20EEB840CBDE810404CF0010CE2
:103F30006047DFE80CF0070802024FF00040A0F5F0
:103F4000800010BD0846420018BFD2F1807288BFC1
:103F500000F0004010BD4FF04070E1EE100A7047D5
:103F6000FF2141EAD050C00570470000000000006A
:103F70000000002F000000000700070000147F145D
:103F80007F1400242A7F2A1200626408132300365B
:103F90004955225000000503000000001C2241008A
:103FA000000041221C000014083E08140008083ECE
:103FB0000808000000A060000008080808080000C9
:103FC00060600000002010080402003E5149453E98
:103FD0000000427F400000426151494600214145B6
:103FE0004B31001814127F10002745454539003C1D
:103FF0004A494930000171090503003649494936EB
:1040000000064949291E00003636000000005636D9
:1040100000000008142241000014141414140000BD
:104020004122140800020151090600324959513E4B
:10403000007C1211127C007F49494936003E414103
:104040004122007F4141221C007F49494941007FB4
:1040500009090901003E4149497A007F0808087FA3
:104060000000417F4100002040413F01007F0814D3
:104070002241007F40404040007F020C027F007FD1
:104080000408107F003E4141413E007F09090906B6
:10409000003E4151215E007F0919294600464949E9
:1040A00049310001017F0101003F4040403F001FB6
:1040B0002040201F003F4038403F00631408146335
:1040C00000070870080700615149454300007F411F
:1040D000410000552A552A55000041417F00000447
:1040E0000201020400404040404000000102040080
:1040F000002054545478007F4844443800384444E5
:10410000442000384444487F003854545418000870
:104110007E0901020018A4A4A47C007F080404788E
:104120000000447D4000004080847D00007F102816
:1041300044000000417F4000007C04180478007CAB
:104140000804047800384444443800FC242424182B
:104150000018242418FC007C080404080048545467
:10416000542000043F444020003C4040207C001C80
:104170002040201C003C4030403C00442810284493
:10418000001CA0A0A07C004464544C4414141414DB
:1041900014140000000000006E83F9A22915444E9B
:1041A000D15727FCC0DD34F5999562DB4190433C43
:1041B000AB6351FE46525F44454E49454400000002
:1041C00046525F4C4F434B454400000046525F4E01
:1041D0004F545F454E41424C4544000046525F57A4
:1041E000524954455F50524F544543544544000092
:1041F00046525F4D4B46535F41424F525445440037
:1042000046525F4E4F5F46494C45000046525F495B
:104210004E56414C49445F4E414D450046525F4E1B
:104220004F545F454E4F5547485F434F524500003E
:1042300046525F494E56414C49445F4452495645A7
:104240000000000046525F4E4F5F5041544800004E
:1042500046525F4F4B00000046525F4E4F5F46494B
:104260004C4553595354454D0000000046525F4998
:104270004E56414C49445F504152414D4554455280
:104280000000000046525F4449534B5F45525200C4
:1042900046525F494E545F455252000046525F54A9
:1042A0004F4F5F4D414E595F4F50454E5F46494C11
:1042B0004553000046525F494E56414C49445F4FBA
:1042C000424A45435400000046525F455849535402
:1042D0000000000046525F54494D454F55540000C0
:1042E00046525F4E4F545F52454144590000000012
:1042F0001043000800000020D4020000C4010008A0
:10430000A8430008D40200208C1D000020020008F1
:104310001350421B0884041A90041AE00411190473
:104320001A44041A0C0413B4412B08C80819041ABF
:10433000DC0C1A30081ACC081A58081AF0081AD4DB
:10434000081AC0081A1C081A9C042A6C40710956E5
:10435000580A5D016061280F803FB285203FF4BF9D
:1043600094BE17A0B53E0C29082918280D72900894
:104370003F20E464BEF8C6C63E0C29082918ED0AA1
:10438000D7A33C44014C2D01020304040D5A060737
:104390000809FC1503FCFC03AC7A030A7809527483
:0843A00023E80309505449020F
:040000050800018965
:00000001FF
